:060000000A128A110C280F
:10000800FE00030EF6000A08F7000A128A153B2BB9
:100018000A128A110F28F801F90183120313D60175
:10002800D701D801D901DA01DB0183160313C7010F
:10003800C801C901CA01CB0183010A128A117C2AAD
:100048008312031323088039B0002308A800280767
:10005800B200A21F3028312832283214320803197E
:10006800362837284728320A031D3B283C284428CD
:100078000030A3000030A2000030A1000030A00032
:10008800A217A3014F280030A3000030A2000030BF
:10009800A1000030A00027088039B10031083006DF
:1000A800031957285828592830172708A80028075F
:1000B800B100A61F6028612862283114310803198D
:1000C800662867287728310A031D6B286C2874284E
:1000D8000030A7000030A6000030A5000030A400C2
:1000E800A617A7017F280030A7000030A60000301F
:1000F800A5000030A400320831020318842885289E
:10010800AB28301F882889288D288030A800280827
:10011800B0063208B3003108B2003308B100200835
:10012800B3002408A0003308A4002108B300250860
:10013800A1003308A5002208B3002608A20033084E
:10014800A6002308B3002708A3003308A700B301BB
:100158003108A800A9012908AB0032082802AA0022
:10016800031CAB032B08803AFF0080307F02031D7D
:10017800BF281A302A02031CC228C328FA2883126F
:1001880003132308220421042004031DCC28CE28AD
:100198000130CF280030B3000030A3000030A200A7
:1001A8000030A1000030A0003108B2000229331C41
:1001B800DE28DF28E6283308A8000310280C0138B9
:1001C800B300E8280310B30C201CEB28EC28ED281A
:1001D800B3170130A800230DA30CA20CA10CA00C8E
:1001E800A80BEF280130A8002808B20783120313D0
:1001F80031083202031C01290229DB28301B05299A
:1002080006294F293208031D0A290B291429003011
:10021800A3000030A2000030A1000030A0007B2A1B
:100228002408A007250803110318013E03191D29F6
:10023800A107260803110318013E03192429A20760
:10024800270803110318013E03192B29A307231CB0
:100258002E292F29032A331C322933293A29330816
:10026800A8000310280C0138B3003C290310B30C74
:10027800201C3F2940294129B3170130A800230D2C
:10028800A30CA20CA10CA00CA80B43290130A800B8
:100298002808B207032A2308803AFF002708803A73
:1002A8007F02031D612926082202031D61292508F2
:1002B8002102031D612924082002031864296529E5
:1002C800BD29FF30A800FF30A900FF30AA00FF3089
:1002D800AB002408AC002508AD002608AE002708AE
:1002E800AF002008AC022108031C210F7C297D29BE
:1002F800AD022208031C220F82298329AE0223089B
:10030800031C230F88298929AF022C08A8072D0868
:1003180003182D0F90299129A9072E0803182E0FCD
:1003280096299729AA072F0803182F0AAB072B0825
:10033800A3002A08A2002908A1002808A0008030EC
:10034800A8002808B006B309B30A3308031DAD296D
:10035800AE29CB290130A007003003180130A107CE
:10036800003003180130A207003003180130A3073A
:10037800CB292408A0022508031C250FA102260862
:10038800031C260FA2022708031C270FA302230819
:10039800220421042004031DD229D329FF2933086C
:1003A800031DD729D829FF290030A3000030A20057
:1003B8000030A1000030A0007B2A0130A800031003
:1003C800A00DA10DA20DA30DA80BE329B31FED29C4
:1003D800EE29EF292014331CF229F329F6290314F6
:1003E800B30DF8290310B30D32080319FC29FD29B0
:1003F800FF290130B202A21F022A032AE129B10112
:10040800B31F072A082A162A33087F3903190D2A29
:100418000E2A112AB101B10A162A201C142A152AFB
:10042800162A0E2A310803191A2A1B2A4F2A0130C4
:10043800A007003003180130A1070030031801306D
:10044800A207003003180130A307231C2C2A2D2AE9
:100458004F2A2008A8002108A9002208AA0023087A
:10046800AB000130AC002B0DAB0CAA0CA90CA80CEE
:10047800AC0B372A2B08A3002A08A2002908A100E0
:100488002808A000320A03194A2A4B2A4F2A0130A9
:10049800A8002808B207320A0319532A542A592AED
:1004A8003208031D582A592A672A0030A300003051
:1004B800A2000030A1000030A0003208031D652A08
:1004C800662A672AB001321C6A2A6B2A6D2AA2178B
:1004D800712A7F30A8002808A2053208A800031056
:1004E800280CA300B01F792A7A2A7B2AA3170800B0
:1004F800003083120313B1000130B0008630AF0022
:10050800A030AE000A128A155F240A128A118316D7
:1005180003130F1070308F04CF3083120313A00021
:100528000030A1000A128A15E8220A128A11CF3077
:1005380083120313A0000030A1000A128A151F239A
:100548000A128A11831203138C12831603138C1652
:100558000B178B170B3083120313D4002630D300EC
:100568005D30D200D20BB62AD30BB62AD40BB62AEA
:100578000A128A1560220A128A1100300A128A1594
:10058800F4230A128A11003083120313A000A10079
:100598000A128A1189260A128A11831603138717E9
:1005A8000713831203138701831603138801831229
:1005B80003138801063083120313D4001330D300C9
:1005C800AD30D200D20BE62AD30BE62AD40BE62AAA
:1005D8000A128A1557260A128A1102308312031347
:1005E800D4000430D300B930D200D20BF92AD30B8F
:1005F800F92AD40BF92A002B1F3083120313D400D5
:100608007130D3001D30D200D20B082BD30B082B2E
:10061800D40B082B0F2B0A128A156F220A128A1183
:1006280083120313A401A40A01300A128A15612552
:100638000A128A11143083120313A5008030A60011
:100648000A128A15D5240A128A1183120313A401E7
:10065800A40A02300A128A1561250A128A110B307F
:1006680083120313A5008030A6000A128A15D52428
:100678000A128A110A3083120313A40001300A12E5
:100688008A1561250A128A111D3083120313A500E9
:100698008030A6000A128A15D5240A128A1106305B
:1006A80083120313D4001330D300AD30D200D20B21
:1006B8005B2BD30B5B2BD40B5B2B00300A128A15F8
:1006C800BB220A128A1183160313C900CA30831287
:1006D8000313A400CB300A128A1120270A128A11A8
:1006E800831603134A0883120313D200D301D401DB
:1006F800D5015508A3005408A2005308A1005208C8
:10070800A00000300A128A11CF250A128A1183121A
:100718000313230883160313C1008312031322084B
:1007280083160313C00083120313210883160313CF
:10073800BF0083120313200883160313BE00410869
:1007480083120313CD008316031340088312031387
:10075800CC00831603133F0883120313CB008316C0
:1007680003133E0883120313CA000A128A15B92616
:100778000A128A11831203134D0883160313C50046
:10078800831203134C0883160313C4008312031344
:100798004B0883160313C300831203134A088316F6
:1007A8000313C200450883120313B1008316031311
:1007B800440883120313B0008316031343088312FB
:1007C8000313AF0083160313420883120313AE000A
:1007D8000A128A1588270A128A11831203132E080F
:1007E80083160313C600193083120313AE00831651
:1007F8000313480883120313B00083160313470832
:1008080083120313AF00AA300A128A1182240A1233
:100818008A11193083120313AE0083160313490893
:1008280083120313D200D3015208AF005308B0005B
:10083800A0300A128A1182240A128A1119308312EE
:100848000313AE0083160313460883120313D20062
:10085800D3015208AF005308B000B4300A128A110D
:1008680082240A128A11083083120313A40002306A
:100878000A128A1561250A128A11A03083120313FD
:10088800A5000030A6000A128A15D5240A128A117A
:10089800053083120313A40001300A128A1561255A
:1008A8000A128A11AA3083120313A5000030A60089
:1008B8000A128A15D5240A128A110C3083120313DE
:1008C800A40001300A128A1561250A128A11B4306F
:1008D80083120313A5000030A6000A128A15D52436
:1008E8000A128A118316031349080A128A157C22F0
:1008F8000A128A11532B0A128A110C288312031325
:10090800BB002F30B500BA2D25303C0603198D2CBD
:100918008E2C982C3B0884003C08831380000130FF
:10092800B1003108BB07BA2DB901BA01B4012E08CC
:1009380084000A128A150A200A128A110A128A15D4
:10094800A7220A128A11031CAA2CAB2CF12C8312A1
:100958000313B901BA010A3083120313A00000304F
:10096800A1003A08A3003908A2000A128A159D239B
:100978000A128A11831203132108BA002008B90049
:100988002E0884000A128A150A200A128A11D03EFB
:10099800B100FF3003180030B2003108B90703185E
:1009A800BA0A3208BA070130B1003108AE072E087A
:1009B80084000A128A150A200A128A110A128A1554
:1009C800A7220A128A110318EA2CEB2CAF2CF12C5F
:1009D800C030B1003108B4040D2D01308312031367
:1009E800AE07FF302E0784000A128A150A200A1261
:1009F8008A11BC00B100B2013208003A0319052D72
:100A0800BA2D3108003A0319CA2D753A0319EC2C8E
:100A1800BA2D3508840083130008B600840A00083C
:100A2800B7000230B1003108B507BC01BC0A3C0868
:100A3800B1003107013E84000A128A150A200A1201
:100A48008A11B2000A128A150A200A128A11B30002
:100A580033083702031D322D320836020318352DAC
:100A6800362D372D412D0130B1003108BC07053036
:100A78003C06031D402D412D1B2D3A08803A803C31
:100A8800031D482D39083C0203184B2D4C2D582DB9
:100A9800831203133C08B100B2013108B9023208CD
:100AA800031CBA03BA025C2D83120313B901BA01FD
:100AB80039083A040319612D622D772D3B0884000B
:100AC8002030831380000130B1003108BB07FF30AC
:100AD800B9070318BA0AFF30BA0739083A04031DE0
:100AE800762D772D622D3C08B800B12D0A30A8006C
:100AF8000030A9003808B1003107013E84000A120D
:100B08008A150A200A128A11A0000A128A150A20D8
:100B18000A128A11A1003708A3003608A2000A1297
:100B28008A151B250A128A11831203132108AB00A8
:100B38002008AA000A128A1599240A128A11831217
:100B480003132808303EBC003B0884003C0883138C
:100B580080000130B1003108BB07FF30B100310817
:100B6800B807380A031DB92DBA2D7A2D0130AE0702
:100B7800FF302E0784000A128A150A200A128A11E9
:100B8800BC003C08031DC92DCA2D882C3B088400D5
:100B980083138001080083120313A800280803198F
:100BA800D62DD72DEB2DA31FDA2DDB2DEB2D20090C
:100BB800AA002109AB002209AC002309AD00AA0A4A
:100BC8000319AB0A0319AC0A0319AD0AF32D23085C
:100BD800AD002208AC002108AB002008AA002308B9
:100BE800220421042004031DFA2DFB2D042E0030BD
:100BF800A3000030A2000030A1000030A000882E21
:100C08009630A900142E0130A4002408A907013049
:100C18000310AD0CAC0CAB0CAA0CFF3E031D0C2E44
:100C2800FE302D05031D192E1A2E072E362E0130E3
:100C3800A4002408A9070130AA07003003180130CE
:100C4800AB07003003180130AC070030031801303F
:100C5800AD0701300310AD0CAC0CAB0CAA0CFF3E79
:100C6800031D2E2EFF302D05031D3B2E3C2E1B2E63
:100C7800482E0130A9020130A4000310AA0DAB0DC3
:100C8800AC0DAD0DA40B412EAC1B4B2E4C2E522E91
:100C9800023029020318512E522E3D2E2918552EA6
:100CA800562E5E2EFF30AA05FF30AB057F30AC050F
:100CB800FF30AD050310A90C2908A400A501A60161
:100CC800A70118300310A40DA50DA60DA70DFF3E12
:100CD800031D662E2408AA042508AB042608AC04C4
:100CE8002708AD04280803197A2E7B2E802EA31F0F
:100CF8007E2E7F2E802EAD172D08A3002C08A20073
:100D08002B08A1002A08A0000800EC2E8316031760
:100D180008148316031305141F2F8316031788144A
:100D28008316031385141F2F8316031708158316BC
:100D3800031305151F2F831603178815831603132E
:100D480085151F2F83160317081683160313851698
:100D58001F2F8316031788168316031309141F2FD2
:100D68008316031708178316031389141F2F831676
:100D7800031788178316031309151F2F83160317E4
:100D880009148316031306151F2F831603178914D6
:100D98008316031386151F2F831603170915831649
:100DA800031386141F2F831603178915831603133D
:100DB80006161F2F83160317091683160313061426
:100DC8001F2F8316031789168316031386161F2FE2
:100DD800831203132108003A0319F32E1F2F20084A
:100DE800003A03198A2E013A0319912E033A03197E
:100DF800982E013A03199F2E073A0319A62E013A95
:100E08000319AD2E033A0319B42E013A0319BB2E68
:100E18000F3A0319C22E013A0319C92E033A0319CE
:100E2800D02E013A0319D72E073A0319DE2E013ABC
:100E38000319E52E1F2F080083120313A8000512BB
:100E4800831603130512183083120313A6005E30AD
:100E5800A500A50B2D2FA60B2D2F0000831603131D
:100E68000516831203138101402F65300102031C0C
:100E78003E2F3F2F402FA92F051A432F442F392FDC
:100E880081014D2F65300102031C4B2F4C2F4D2F34
:100E9800A92F051E502F512F462F81015A2F65303B
:100EA8000102031C582F592F5A2FA92F051A5D2FFD
:100EB8005E2F532FA9010A128A15C4230A128A1118
:100EC8000318672F682F692FA92F83120313290886
:100ED800563E84005B08831380000130A500250876
:100EE800A90705302902031C7A2F7B2F5F2F58088A
:100EF8005707A50059082507A60056082607A70082
:100F08005A0827060319892F8A2F8B2FA92F2808FB
:100F180084000A30A00056080A128A15D1220A1243
:100F28008A1183120313570783138000240884004F
:100F38000A30A00058080A128A15D1220A128A110A
:100F480083120313590783138000080083120313C5
:100F58002F08A3002E08A2002D08A1002C08A0002D
:100F68000030A7000030A6000030A5000030A40023
:100F78000A128A15AD250A128A11031CC42FC52F1F
:100F8800CE2F831203133008840083138001840A50
:100F98008001FD2F831203132F087F39B100B2019E
:100FA8000310B10DB20D300884003108831380009E
:100FB800840A320880002E0D2E0D0139B100B201CD
:100FC8003008840031088004840A3208800430081C
:100FD800840082308007840F00080318000AFF008D
:100FE800FF307F07800084032F0880393F38AF0027
:040FF800AE1308002C
:10100000FF1B0A2883137F1883170008840A03191B
:10101000FF0A080008308A000408840A82070034A6
:10102000013400340A34003464340034E8340334C6
:101030001034273441346C3463346F3468346F3483
:101040006C343A340034423450344D343A34003441
:0E105000253433347534003454343A340034CB
:1014C0008316031305168112811508008312031376
:1014D0000C1F6B2A6C2A6D2A0C131E0808000030A2
:1014E0000A128A1503230A128A1501300A128A1574
:1014F00003230A128A15080083120313A00083161F
:101500000313981C842A852A7F2A83120313200838
:101510009900080083120313A1002108A000A00D68
:10152000A00D1F082006C33920069F009F14080045
:10153000831203138C1E9D2A9E2A982A8C121A0845
:10154000F200F3017208F0007308F1000800831242
:101550000313A100A0013A3021020318B02AB12AD6
:10156000B92A30302102031CB62AB72AB92AA001B1
:10157000A00A200C080083120313A30023080A12F8
:101580008A158A220A128A150F3083120313A200C9
:10159000A20BC82ACB2A0A128A1566220A128A15B9
:1015A000080083120313A300A201231CD82AD92AFE
:1015B000DD2A2008A1002108A2070310A00D0310B6
:1015C000A30C2308031DE52AE62AD52A22080800D1
:1015D0008316031318121815831603178715831221
:1015E00003132008831603139900831203132108A1
:1015F000831603139A0083120313981718131816EF
:1016000018119810080083120313A300081123086F
:101610000A128A1559230A128A1583120313881590
:101620000B3083120313A2006130A100A10B162B13
:10163000A20B162B1B2B8312031388110800831691
:101640000313181218158316031787158312031333
:1016500020088316031399008312031321088316AD
:1016600003139A008312031398171813181683167E
:101670000313981608000A128A1598220A128A156E
:10168000710883160313C8007008C7008312031380
:101690008C121A30F500F830F400F40B4D2BF50BDA
:1016A0004D2B000077088A00760E8300FE0E7E0E1A
:1016B000090083120313A000201C5F2B602B622BF8
:1016C0000816632B0812A01C662B672B692B881643
:1016D0006A2B8812201D6D2B6E2B702B0817712B17
:1016E0000813A01D742B752B772B8817782B881364
:1016F0000800803083120313C5064908A300480878
:10170000A2004708A1004608A0004508A700440819
:10171000A6004308A5004208A4000A128A1124204A
:101720000A128A15831203132308C5002208C40075
:101730002108C3002008C200080083120313A4017B
:10174000A501201CA42BA52BAB2B2208A407031852
:10175000A50A2308A50701300310A20DA30DFF3E23
:10176000031DAC2B01300310A10CA00CFF3E031D88
:10177000B32B20082104031DBE2BBF2BA12B250852
:10178000A1002408A000080083120313DB01A101BB
:101790008101D22B65300102031CCF2BD02BD22B21
:1017A0000310F32B051ED52BD62BCA2B8101DF2B63
:1017B00065300102031CDD2BDE2BDF2BD02B051A3D
:1017C000E22BE32BD82B32300102DB0D01308312E8
:1017D0000313A0002008A10708302102031CF12BED
:1017E000F22BC82B0314080083120313A10021035A
:1017F000031DFB2BFC2B022C8B170B1783160313DB
:101800000C13052C831603130C139F131F129F1226
:101810008316031788018901831203131F083F39B8
:1018200040389F00C3309F05203083120313A0006F
:10183000A00B182C0000831203131F1420308312F6
:101840000313A000A00B222C000008008312031336
:10185000A40024080F39A2002408F039A3000815B9
:101860002308A10004300310A10CFF3E031D332CFC
:1018700021080A128A1559230A128A1583120313A2
:101880008815193083120313A100A10B452C482C95
:1018900083120313881122080A128A1559230A1287
:1018A0008A15831203138815193083120313A100BC
:1018B000A10B582C5B2C83120313881108002830CD
:1018C00083120313940083160313910183120313ED
:1018D0002E08B2002F08B3003008B4003108B5005C
:1018E00002300310B20DB30DB40DB50DFF3E031D54
:1018F000712C3508A3003408A2003308A100320877
:10190000A0000030A7007A30A6001230A5000030F9
:10191000A4000A128A1520270A128A1583120313BB
:101920002008FF3E831603139300940187150716C2
:10193000080083120313280829040319A02CA12CE2
:10194000D02CAD01AD0AAF2C01300310A80DA90DAC
:10195000FF3E031DA52C0130AC002C08AD07A91FCC
:10196000B22CB32CA42C29082B02031DB92C280857
:101970002A02031CBC2CBD2CC32C2808AA0229084F
:10198000031CAB03AB0201300310A90CA80CFF3EF3
:10199000031DC42C0130AD02031DCF2CD02CB32C61
:1019A0002B08A9002A08A800080083120313AA0123
:1019B000AB01FE2C2A082507A8002608A70003185B
:1019C000A70AAA1FE42CA703831203132708A90060
:1019D0002908FF00280884000A128A1500200A122C
:1019E0008A150A128A1526240A128A1501308312D2
:1019F0000313AA070318AB0A0030AB072A08250710
:101A0000A8002608A7000318A70AAA1F082DA703E5
:101A1000831203132708A9002908FF00280884005F
:101A20000A128A1500200A128A15003A031D192D80
:101A30001A2DDA2C080083120313A501A601200831
:101A400021040319242D252D5C2DA701A70A332D70
:101A500001300310A00DA10DFF3E031D292D013003
:101A6000A4002408A707A11F362D372D282D0130EB
:101A70000310A50DA60DFF3E031D382D21082302DE
:101A8000031D442D20082202031C472D482D4F2DF5
:101A90002008A2022108031CA303A302251401307D
:101AA0000310A10CA00CFF3E031D502D0130A70216
:101AB000031D5B2D5C2D372D2608A1002508A000F5
:101AC000080083120313A6002603031D682D692D49
:101AD000882D24087F3EA9002908A50004300310A2
:101AE000A50CFF3E031D6F2D2508A70029080F39FF
:101AF000A80027080A128A1503230A128A158312DE
:101B0000031328080A128A1503230A128A15AC2D1A
:101B100002302606031D8D2D8E2DAC2D2408BF3ED0
:101B2000A9002908A50004300310A50CFF3E031DE1
:101B3000942D2508A70029080F39A80027080A12A4
:101B40008A1503230A128A158312031328080A121E
:101B50008A1503230A128A15080000308312031322
:101B60002005A80000302105A90080302205AA0028
:101B70007F302305AB002B082A0429042804031D09
:101B8000C22DC32DCB2D0030A3000030A2000030A9
:101B9000A1000030A00000302405A8000030250579
:101BA000A90080302605AA007F302705AB002B084E
:101BB0002A0429042804031DDE2DDF2DE72D003023
:101BC000A7000030A6000030A5000030A4002708C0
:101BD0002306031DF52D26082206031DF52D2508D5
:101BE0002106031DF52D240820060319F82DF92DD3
:101BF000FB2D0310FC2D03140800831203133B0874
:101C0000AF003A08AE003908AD003808AC004030EB
:101C1000B0000A128A11AA270A128A158312031326
:101C2000C11F132E142E1D2E0030BB000030BA0031
:101C30000030B9000030B800562E003041021D308F
:101C400003194002031C252E262E272E562E3B0854
:101C5000B1003A08B0003908AF003808AE000A12E7
:101C60008A1588270A128A15831203133108A300E4
:101C70003008A2002F08A1002E08A00001300A128F
:101C80008A11CF250A128A15831203132308BF0075
:101C90002208BE002108BD002008BC003F08BB0090
:101CA0003E08BA003D08B9003C08B8000800003002
:101CB0000A128A1559230A128A1534308312031323
:101CC000A500F130A400A40B632EA50B632E0330F6
:101CD0000A128A1503230A128A150D308312031380
:101CE000A500FB30A400A40B732EA50B732E0330AC
:101CF0000A128A1503230A128A151D308312031350
:101D0000A5009030A400A40B832EA50B832E000009
:101D100003300A128A1503230A128A1502300A12A6
:101D20008A1503230A128A1502300A128A15032320
:101D30000A128A1508300A128A1503230A128A1514
:101D400000300A128A1503230A128A150C300A126F
:101D50008A1503230A128A1500300A128A150323F2
:101D60000A128A1506300A128A1503230A128A15E6
:101D70000800831203134D08BB004C08BA004B083F
:101D8000B9004A08B8000A128A15FD250A128A15F8
:101D9000831203133B08C5003A08C4003908C30086
:101DA0003808C2004D08C9004C08C8004B08C700DD
:101DB0004A08C6000A128A1579230A128A15831264
:101DC00003134508D1004408D0004308CF0042085F
:101DD000CE005108A3005008A2004F08A1004E08F1
:101DE000A0004D08A7004C08A6004B08A5004A0813
:101DF000A4000A128A1124200A128A1583120313DE
:101E00002308CD002208CC002108CB002008CA00FE
:101E10004D08BB004C08BA004B08B9004A08B8008E
:101E20000A128A15FD250A128A15831203133B082C
:101E3000CD003A08CC003908CB003808CA000800A9
:101E4000003083120313AC000030AB000030AA0056
:101E50000030A90023082204210420040319312F93
:101E6000322F7F2FAD01AD0A422F0130A8000310A1
:101E7000A00DA10DA20DA30DA80B372F0130A800B6
:101E80002808AD07A31F452F462F352F0130A80086
:101E90000310A90DAA0DAB0DAC0DA80B482F2308FC
:101EA0002702031D5D2F22082602031D5D2F210836
:101EB0002502031D5D2F20082402031C602F612FC3
:101EC000702F2008A4022108031C210FA50222085C
:101ED000031C220FA6022308031C230FA7022914A8
:101EE00001300310A30CA20CA10CA00CFF3E031D9B
:101EF000712F0130AD02031D7E2F7F2F462F2C083E
:101F0000A3002B08A2002A08A1002908A0000800AD
:101F1000031083120313300D310DB7003708031D72
:101F2000922F932F9C2F0030B1000030B000003072
:101F3000AF000030AE00FF2F2E08B2002F08B30014
:101F40003008B4003108B5001F300310B50CB40CD4
:101F5000B30CB20CFF3E031DA52F3208B600B0171C
:101F6000FF30AE05FF30AF05FF30B0050030B105E2
:101F70009630B702B71FBD2FBE2FD82F3708803A33
:101F8000973E0318C42FC52FC62F932F013003107F
:101F9000B10CB00CAF0CAE0CFF3E031DC72F0130CF
:101FA000B2003208B707031DD62FD72FC62FEF2F49
:101FB00020303702031CDD2FDE2FEA2F932F013054
:101FC000B2000310AE0DAF0DB00DB10DB20BE12F8D
:101FD0000130B7023708031DEE2FEF2FDF2F360831
:101FE0000319F32FF42FFF2FAE09AF09B009B10980
:101FF000AE0A0319AF0A0319B00A0319B10A08009F
:08400000FF3FFF3FFF3FFF3FC0
:04400E00D420FF3F7C
:00000001FF
